:100000000C94CA000C94F2000C94F2000C94F200D0
:100010000C94F2000C94F2000C94F2000C94F20098
:100020000C94F2000C94F2000C94F2000C94F20088
:100030000C94F2000C94F2000C94F2000C94F20078
:100040000C9475120C94F2000C94E5120C94BF12EF
:100050000C94F2000C94F2000C94F2000C94F20058
:100060000C9417130C94F200CDCCCC3D0AD7233C52
:1000700017B7D13877CC2B329595E6241FB14F0AAC
:10008000000020410000C84200401C4620BCBE4C7D
:10009000CA1B0E5AAEC59D74446573657269616C66
:1000A000697A65204A736F6E204572726F72203ACA
:1000B000200031353A33313A303300536570203304
:1000C00030203230323400525443204C6F7374204D
:1000D000506F7765722C2073657474696E67207435
:1000E00068652074696D65210053746174757320AF
:1000F0003A20436F756C646E27742066696E6420C5
:100100005254430054696D65203A2000446174657F
:10011000203A200025004361706163697479203AB8
:100120002000537769746368203A20004155544F8A
:10013000203A20000000000800020100000304072C
:1001400000000000000000001F1C1F1E1F1E1F1FBC
:100150001E1F1E00000000250028002B00000000CC
:1001600000240027002A00040404040404040402F8
:100170000202020202030303030303010204081044
:100180002040800102040810200102040810200011
:10019000AF14361411241FBECFEFD8E0DEBFCDBFA1
:1001A00024E0ACE1B2E001C01D92A835B207E1F74E
:1001B00012E0A0E0B1E0E2E4FEE302C005900D929F
:1001C000AC31B107D9F710E0C9ECD0E004C02197F9
:1001D000FE010E94FB1CC83CD107C9F70E9487158D
:1001E0000C94141F0C9400000895CF93DF93EC013E
:1001F000E0916002F09161023097F1F090919003EC
:1002000080918F039817C0F090E0292F30E02617D7
:10021000370754F4DE01A20FB31F4C9123583D4F12
:10022000D9014C939F5FF1CF1092900360938F039D
:10023000CB01DF91CF910994DF91CF91089590E0A8
:10024000FC01E558FE4F249189599E4FFC01849191
:10025000882399F090E0880F991FFC01E35AFE4F24
:10026000A591B491FC01ED5AFE4F859194918FB701
:10027000F894EC91E22BEC938FBF089590E0FC0191
:10028000EC5CFE4F2491FC01E558FE4F3491FC01DB
:10029000E959FE4FE491EE23C9F0222339F02330CF
:1002A00001F1A8F4213019F1223029F1F0E0EE0F2C
:1002B000FF1FED5AFE4FA591B4918FB7F894EC91C2
:1002C000611126C030953E233C938FBF089527309F
:1002D000A9F02830C9F0243049F7809180008F7D43
:1002E00003C0809180008F7780938000DFCF84B53A
:1002F0008F7784BDDBCF84B58F7DFBCF8091B0003D
:100300008F778093B000D2CF8091B0008F7DF9CFEE
:100310003E2BDACF3FB7F8948091790290917A0220
:10032000A0917B02B0917C0226B5A89B05C02F3F0F
:1003300019F00196A11DB11D3FBFBA2FA92F982F0B
:100340008827BC01CD01620F711D811D911D42E006
:10035000660F771F881F991F4A95D1F708952FB709
:10036000F894609175027091760280917702909175
:1003700078022FBF0895AF92BF92CF92DF92EF9293
:10038000FF920F931F93CF93DF936C017B018B013F
:10039000040F151FEB015E01AE18BF08C017D1078F
:1003A00059F06991D601ED91FC910190F081E02D19
:1003B000C6010995892B79F7C501DF91CF911F916E
:1003C0000F91FF90EF90DF90CF90BF90AF90089586
:1003D000FC01538D448D252F30E0842F90E0821B4B
:1003E000930B541710F0CF96089501970895FC01D0
:1003F000918D828D981761F0A28DAE0FBF2FB11D28
:100400005D968C91928D9F5F9F73928F90E008957F
:100410008FEF9FEF0895FC01918D828D981731F039
:10042000828DE80FF11D858D90E008958FEF9FEF8D
:100430000895FC01918D228D892F90E0805C9F4F63
:10044000821B91098F739927089581E993E00E9497
:10045000190221E0892B09F420E0822F089580E021
:1004600090E0892B29F00E94250281110C94000054
:100470000895FC01A48DA80FB92FB11DA35ABF4F39
:100480002C91848D90E001968F739927848FA68993
:10049000B7892C93A089B1898C91837080648C93E7
:1004A000938D848D981306C00288F389E02D808196
:1004B0008F7D80830895EF92FF920F931F93CF93C8
:1004C000DF93EC0181E0888F9B8D8C8D98131AC08F
:1004D000E889F989808185FF15C09FB7F894EE8976
:1004E000FF896083E889F9898081837080648083D3
:1004F0009FBF81E090E0DF91CF911F910F91FF901E
:10050000EF900895F62E0B8D10E00F5F1F4F0F73C5
:100510001127E02E8C8D8E110CC00FB607FCFACF80
:10052000E889F989808185FFF5CFCE010E943902E3
:10053000F1CFEB8DEC0FFD2FF11DE35AFF4FF08251
:100540009FB7F8940B8FEA89FB8980818062CFCFB7
:100550000F931F93CF93DF938C01D0E0C0E0F8019D
:10056000EC0FFD1F6491662341F081E993E00E9446
:100570005B02892B11F02196F2CFCE01DF91CF9152
:100580001F910F910895CF93DF93EC01888D8823FD
:10059000B9F0AA89BB89E889F9898C9185FD03C0E6
:1005A000808186FD0DC00FB607FCF7CF8C9185FFCB
:1005B000F2CF808185FFEDCFCE010E943902E9CFD5
:1005C000DF91CF91089520913D02260F3327331FED
:1005D00021323105ECF42091C302FC0190E080E06F
:1005E000243069F082E00895A0913D022191AC0190
:1005F000435E5D4FA40FB52FB11D2C930196861756
:1006000098F380913D02680F60933D0280E0089569
:1006100081E008951092C30281E08093C20210929B
:100620009D0261E082E10E943E0161E083E10E945F
:100630003E01E9EBF0E080818E7F808380818D7FB9
:10064000808388E48093B80085E48093BC0008959B
:100650001092900310928F0310928E0310928D03CC
:100660000E940A0384EF90E090938C0380938B03A5
:1006700085EF90E090938A03809389030895CF9348
:10068000DF9391E090931C028823B9F0C091B800E9
:10069000D091BA008091BC008A7B8093BC0060E05E
:1006A00082E10E943E0160E083E10E943E010E94DF
:1006B0000A03D093BA00C093B800DF91CF91089598
:1006C0008F929F92AF92BF92CF92DF92EF92FF9262
:1006D0000F931F93CF93DF93D0918D03D13208F006
:1006E000D7C0182FC091EA020E948A016B017C01D9
:1006F0008091C30281116BC082E08093C30210938A
:10070000C2028FEF8093C1021092C002D093BF0249
:10071000AAECB2E0EFE9F2E080E0D81391C01092C9
:100720009E0280919E02CC0FC82BC0939E028091A6
:100730009D02813009F088C010929D020E948A01BA
:100740006B017C0180919E028093BB008091C50269
:100750009091C602A091C702B091C802892B8A2B42
:100760008B2BA1F00E948A010091C5021091C60254
:100770002091C7023091C8026C197D098E099F092A
:10078000061717072807390708F442C08091BC00F4
:1007900083FDD8CF85EC8093BC000E948A016B0159
:1007A0007C018091C302823009F450C08091C10263
:1007B0008F3F09F46FC08091C102803209F46CC090
:1007C0008091C102803309F469C084E026C0809121
:1007D000C5029091C602A091C702B091C802892BB0
:1007E0008A2B8B2B09F484CF0E948A018090C5024A
:1007F0009090C602A090C702B090C8026C197D0903
:100800008E099F0986169706A806B90608F070CFCC
:100810008091C4020E943F0385E010928E031092E3
:100820008D031092C902DF91CF911F910F91FF901C
:10083000EF90DF90CF90BF90AF909F908F900895F2
:100840009D9191938F5F69CF85EEA5CF8091C50271
:100850009091C602A091C702B091C802892B8A2B41
:100860008B2B09F49ECF0E948A010091C502109142
:10087000C6022091C7023091C8026C197D098E0909
:100880009F09061717072807390708F08ACFC0CF36
:1008900081E0C3CF80E0C1CF82E0BFCF83E0BDCF96
:1008A0000895E091900380918F03E81730F4F0E011
:1008B000E358FD4F808190E008958FEF9FEF0895FA
:1008C0009091900380918F032FEF3FEF981748F49A
:1008D000E92FF0E0E358FD4F208130E09F5F9093D7
:1008E0009003C901089580918F0390919003891B13
:1008F000990B0895CF92DF92EF92FF920F931F937F
:10090000CF93DF937C01CB018A012091C90222237E
:1009100089F0EB016B01C40ED51ECC15DD0569F025
:100920006991D701ED91FC910190F081E02DC70113
:100930000995F3CF642F0E94E302C801DF91CF91A4
:100940001F910F91FF90EF90DF90CF900895CF937C
:10095000DF931F92CDB7DEB769832091C9022223AE
:10096000F9F020918D03203258F021E030E0FC01B5
:100970003383228390E080E00F90DF91CF91089540
:1009800080918E03E82FF0E0E653FD4F998190832C
:100990008F5F80938E0380938D0381E090E0ECCF96
:1009A00061E0CE0101960E94E302F7CF90E080E083
:1009B0000895CF93DF93EC018B818823A1F0888188
:1009C00091E09093C9028093EA0210928E031092F4
:1009D0008D0381E00E94600391E0811190E0892FF6
:1009E000DF91CF9108950E94280381E08B83CE018F
:1009F0000E94D904982F8111E2CFF1CFFC019081A0
:100A000090539A3008F090E0818180532AE0929FC1
:100A1000800D11240895DC0150E0E8E4F1E081E06C
:100A2000861730F49491490F511D8F5F3196F8CF9E
:100A3000633038F0CD0183709927892B11F44F5F13
:100A40005F4F9D012D5F3F4F369527953695279532
:100A50006DE671E0A69FC001A79F900DB69F900D17
:100A600011240197820F931F840F951F08950F93F0
:100A70001F93CF93DF93EC018B01888599850297B3
:100A800049F46130710509F436C04CF560E0011598
:100A9000110591F188859985049749F40130110574
:100AA00009F451C09CF50115110509F43BC0888576
:100AB0009985059709F0C5C00A30110508F0C1C035
:100AC000F801EB59FA4F0C94FB1CB705C105CF0593
:100AD000E105F905FB0501060B0619061F06623044
:100AE000710591F060E003301105A1F68C850E943C
:100AF0003E0160E005C061E08C850E943E0161E03E
:100B00008E850E943E01C6CF61E0F0CF0230110514
:100B100001F10330110559F661E08C850E943E0118
:100B200060E01CC061E08C850E943E0160E08E8523
:100B30000E943E0161E088890E943E0160E08A894E
:100B40000E943E01B4CF60E08C850E943E0161E0CE
:100B5000EECF60E08C850E943E0161E08E850E94B0
:100B60003E0160E088890E943E0161E0E8CF60E0DC
:100B70008C850E943E0161E08E850E943E0161E00D
:100B800009C060E08C850E943E0161E08E850E9474
:100B90003E0160E088890E943E0160E00DC060E097
:100BA0008C850E943E0161E08E850E943E0160E0DE
:100BB00088890E943E0161E08A890E943E0161E0CD
:100BC00011C060E08C850E943E0161E08E850E942C
:100BD0003E0160E088890E943E0161E08A890E94AE
:100BE0003E0160E08C89DF91CF911F910F910C94B1
:100BF0003E0161E0E7CF61E08C850E943E0160E04C
:100C0000E5CF61E08C850E943E0160E08E850E9408
:100C10003E0161E0DFCF61E08C850E943E0160E033
:100C20008E850E943E0161E088890E943E0160E05D
:100C3000D5CF61E08C850E943E0160E09DCF60E0F1
:100C4000F9CFDF91CF911F910F9108954F925F924D
:100C50006F927F928F929F92AF92BF92CF92DF92CC
:100C6000EF92FF920F931F93CF93DF93EC018B01D1
:100C70006A8D7B8D8C8D9D8D0E94691A6B017C0124
:100C8000B801110F880B990B0E946B1A20E030E01D
:100C900044EB53E40E94D91B9B01AC01C701B60190
:100CA0000E94CA1A0E944B1C9B018B0177FF04C053
:100CB00000271127061B170B121613060CF04AC04B
:100CC00081E090E09983888384E0E82EF12C9AE01B
:100CD000C92ED12C0115110509F44EC00E948A01BC
:100CE0008E889F88A88CB98C2B013C014818590824
:100CF0006A087B088A809B80AC80BD8048145904B8
:100D00006A047B0438F36E8B7F8B888F998F8A857A
:100D10009B85288139812130310511F501969B870A
:100D20008A872E813F818217930711F41B861A86CA
:100D3000015011098A859B8528853985B6012530A2
:100D4000310509F0B7010E94A61CBC01CE010E942A
:100D50003705C0CF232B09F4B7CF19821882B4CF3F
:100D6000892B21F48E819F819B878A878A859B8529
:100D700001979B878A87DCCFDF91CF911F910F91DD
:100D8000FF90EF90DF90CF90BF90AF909F908F90AB
:100D90007F906F905F904F900895982F80336CF004
:100DA0008A3324F08F3524F08B3724F481E00895C2
:100DB00081341CF081E09B350CF080E00895FC014B
:100DC0008685811114C0A185B285838594852FEF16
:100DD0003FEFA817B90730F4CD01019692878187BC
:100DE0002C9130E037FD20E0258781E086878585DE
:100DF00008951F93CF93DF93EC01162F0E94DF0617
:100E0000811306C01E8681E0DF91CF911F91089566
:100E100080E0FACF0F931F93CF93DF938C01EB0108
:100E20008991882369F0C8010E94DF06882379F040
:100E3000FE013197908198130DC0F8011686F0CF0E
:100E400090E080E0DF91CF911F910F91089582E0B3
:100E500090E0F8CF83E090E0F5CFCF93DF93EC0103
:100E6000CE010E94DF068B304CF489305CF488237D
:100E700059F081E0888790E080E00BC08D3011F060
:100E80008032B9F71E86ECCF8885811105C081E0DC
:100E900090E0DF91CF91089582E090E0FACFFC01DD
:100EA00024813581A9014F5F5F4F86819781481763
:100EB000590748F48281938155834483FC01E20FF2
:100EC000F31F608308950190F081E02D81E0808719
:100ED00008959F92AF92BF92CF92DF92EF92FF92CE
:100EE0000F931F93CF93DF9300D000D01F92CDB705
:100EF000DEB78C010E94DF06D82ED8011E961C9208
:100F0000F12CE12C60EFC62EC8010E94DF06F8012B
:100F10001686D81609F4B4C0811113C082E090E09F
:100F20000F900F900F900F900F90DF91CF911F9126
:100F30000F91FF90EF90DF90CF90BF90AF909F9078
:100F400008958C3509F09AC0C8010E94DF068823F5
:100F500029F3EAE8F1E0853709F084C0D8011E964C
:100F60001C9254E0952EB12CA12CC8010E94DF06E2
:100F70008823A1F2813434F48053803130F083E04F
:100F800090E0CECF8F7D8753F8CF44E0AA0CBB1CF6
:100F90004A95E1F7A82AF80116869A949110E5CFB0
:100FA000C501985D8115944020F47501F3E0FF229E
:100FB000ABCFC5019C5D81159440A8F483E0B822B5
:100FC000B701762F6627770F770F6A297B2990E084
:100FD00080E00196603871058105910540F4C801F3
:100FE0000E944F0791CFB50190E080E0F3CF1982C6
:100FF000262F2F7320682A8326E09695879577956C
:1010000067952A95D1F76032710580F4606C6B8327
:101010005E01A4E0AA0EB11CD5016E915D016623AC
:1010200009F472CFC8010E944F07F6CF262F2F7305
:1010300020682B8386E0769567958A95E1F7603185
:10104000710538F4606E6C835E01B5E0AB0EB11CC7
:10105000E3CF60686C83CD825E01E6E0AE0EB11C2A
:10106000DBCF32969081992309F489CF8913F9CF88
:101070008181882309F483CFF8011686682FAFCFCA
:101080000190F081E02D8085882319F084E090E0C4
:1010900047CF90E080E044CF4F925F926F927F9273
:1010A0008F929F92AF92BF92CF92DF92EF92FF9278
:1010B0000F931F93CF93DF93EB01DC012C912B3225
:1010C000D9F12D32D1F50196FF24F394FC01208152
:1010D00030ED320F3A3018F02E3209F042C18C0157
:1010E00060E070E0CB01F801219130ED832E820E9B
:1010F00039E0381520F16A3949E97407840749E174
:10110000940738F5AAE0B0E09B01AC010E94881B6F
:10111000912CB12CA12C2401350140945094609461
:101120007094461657066806790698F0680D791D82
:101130008A1D9B1D8F01D7CF0196F12CC7CF21119E
:1011400008C0FF20E9F161307105810550E895077D
:10115000A0F0E12CBAE08B2E912CA12CB12C6115C2
:10116000710530E883079105B0F1A50194010E9453
:10117000BA1CCA01B901E394F2CF2C8120782A600D
:101180002C839B01AC0188279927DC01821B930BE0
:10119000A40BB50B88839983AA83BB838F2DDF9122
:1011A000CF911F910F91FF90EF90DF90CF90BF9064
:1011B000AF909F908F907F906F905F904F90089529
:1011C0002C81207828602C83688379838A839B8391
:1011D000FF24F394E3CFF801D8012D918D0130ED78
:1011E000320F3A3010F4E394F6CF2E3201F58F012E
:1011F0000F5F1F4FF8010F5F1F4F2081A0EDDA2E08
:10120000D20EB9E0BD1598F06C3CECEC7E07ECE03A
:101210008E07910578F7AAE0B0E09B01AC010E942F
:10122000881B6D0D711D811D911DEA94E3CF2081F6
:101230002F7D10E000E0253409F05BC021812D32C4
:10124000D1F53296CC24C394DF0110E000E02E2DBE
:101250000E2C000C330B5AE0B52EFD01DD9040ED55
:101260004D0D4A3008F040C0B09EA001B19E500D17
:1012700011240D2DDD0C110B00531109040F151F46
:10128000A801420F531F473251053CF38C81CC20FB
:10129000C9F040E050E060E070E8F11003C040E0C9
:1012A00050E0BA0180788C608C83488359836A83CC
:1012B0007B83FC2C73CF2B3219F03196C12CC4CF19
:1012C0003296FCCF40E050E060E87FEFF11004C0C0
:1012D00040E050E060E87FE780788C608C83488352
:1012E00059836A837B8374CFCC2019F011950195C3
:1012F00011092081211135C00E0D111DE7FC1A9531
:101300000E94691A30E8C32E30E0D32E1016110661
:101310003CF011950195110948E6C42E40E0D42E09
:10132000E12C0115110591F000FF0CC024E0E29EB4
:10133000F0011124EC0DFD1D25913591459154913D
:101340000E94CA1A15950795E394EBCFF1109058B7
:101350002C8120782C602C83688379838A839B83FB
:1013600037CFF12C1BCFCF92DF92EF92FF92CF932A
:10137000DF9300D000D01F92CDB7DEB7FC0184818F
:101380008F778630B9F028F4843088F590E080E0DB
:1013900013C08A30E9F08C30B9F18830B9F7808118
:1013A0009181A281B381811520E89207A105B10541
:1013B00068F702C0808190E00F900F900F900F901F
:1013C0000F90DF91CF91FF90EF90DF90CF90089535
:1013D00080819181A281B381AC01BD0150586F4FD2
:1013E0007F4F411551056140710580F6E5CF808141
:1013F00091811D82BE016F5F7F4F0E944C08CE011C
:1014000001960E94B309D8CFC080D180E280F380DA
:1014100020E030E040E057ECC701B6010E94811C9B
:1014200087FDB4CF20E03EEF4FEF56E4C701B60191
:101430000E94641A18160CF4A9CFC701B6010E94C5
:101440004B1CCB01B9CFCF93FC01892B49F194817F
:101450009F779830E1F040F4992311F19630A9F08C
:10146000C1E08C2FCF9108959A3089F09C30C1F75C
:10147000C1E020E030E0A901608171818281938127
:101480000E94641A8111EDCF0BC0C081EACFC1E088
:1014900080819181A281B381892B8A2B8B2B09F7C3
:1014A000C0E0DFCFCF93DF93DC01EB01EC81FD8166
:1014B0008A819B810896E817F90740F481E08887C4
:1014C000F0E0E0E0CF01DF91CF9108953897FD8300
:1014D000EC833097B9F31296CD91DC911397209756
:1014E00091F0CF018C1B9D0B23E0959587952A9554
:1014F000E1F78D831396FC93EE9312971582148275
:1015000017821682DFCF1196FC93EE93F3CFEF9202
:10151000FF920F931F93CF93DF937C01DC01129610
:101520002D913C911397ED91FC91AB01420F531F0C
:10153000EF01C60FD71FC217D307A0F4888181110E
:101540000BC0E901CF014C175D0751F00991DC0197
:101550001D91CD010117B9F381918111FDCFE8CF24
:10156000309751F4620F731FCB010196F7019383FB
:101570008283DB011C92F901CF01DF91CF911F9192
:101580000F91FF90EF9008951F93CF93DF93DC01AD
:101590001496ED91FC91E417F50710F490E01FC04C
:1015A000122FEA01FC0181819281208131E0309388
:1015B000C9022093EA0210928E0310928D03DC017F
:1015C000ED91FC910280F381E02D0995C817D907B0
:1015D00029F7812F0E94600391E08111DFCF892FCD
:1015E000DF91CF911F9108952F923F924F925F927A
:1015F0006F927F928F929F92AF92BF92CF92DF9223
:10160000EF92FF920F931F93CF93DF935C011B0127
:101610006A01F12CE12CD50114968D919C918601E3
:101620000E191F098017910708F48C01F501D0816C
:101630000E948A012B013C018091C302811172C07A
:10164000C02F013208F0C0E2F1E0F093C30221E0C4
:10165000C601801B910BE816F90608F420E02093E0
:10166000C2028FEF8093C1021092C0028C0F809350
:10167000BF02A1E0A0939E0280919E02DD0FD82BB5
:10168000D0939E0280919D02813009F090C010920B
:101690009D020E948A012B013C0180919E02809351
:1016A000BB008091C5029091C602A091C702B09183
:1016B000C802892B8A2B8B2BA1F00E948A012091D2
:1016C000C5023091C6024091C7025091C802641908
:1016D000750986099709261737074807590708F437
:1016E00042C08091BC0083FDD8CFB5ECB093BC0064
:1016F0000E948A012B013C018091C302813009F4D0
:101700005AC08091C0028C1710F4C091C002AFE99A
:10171000B2E0EDE7F2E080E08C1751F19D919193FA
:101720008F5FFACF8091C5029091C602A091C70247
:10173000B091C802892B8A2B8B2B09F47DCF0E9494
:101740008A012091C5023091C6024091C702509192
:10175000C8026419750986099709261737074807CB
:10176000590708F069CF8091C4020E943F03C0E08E
:1017700010929003C0938F03C017110609F057C051
:1017800041018E0C9F1CE401CE0188199909801734
:10179000910798F5D50111968D919C91DC01ED9101
:1017A000FC910284F385E02D09958993EDCFE5EE58
:1017B000E093BC009DCF8091C5029091C602A0919C
:1017C000C702B091C802892B8A2B8B2B09F494CFC6
:1017D0000E948A012091C5023091C6024091C70241
:1017E0005091C802641975098609970926173707A9
:1017F0004807590708F080CFB6CFE00EF11EEC1471
:10180000FD0408F408CF81E0DF91CF911F910F9183
:10181000FF90EF90DF90CF90BF90AF909F908F9010
:101820007F906F905F904F903F902F90089580E051
:10183000EBCF0F931F93CF93DF9300D0CDB7DEB7DD
:101840008C018FE08A8321E041E050E0BE016E5FB1
:101850007F4FF801808191810E94C40A41E050E0ED
:10186000BE016F5F7F4FF801808191810E94F40A71
:1018700089810F900F90DF91CF911F910F91089563
:10188000EF92FF920F931F93CF93DF9300D000D07E
:1018900000D01F92CDB7DEB78C011982DB01ED902D
:1018A000FC9020E041E050E0BE016F5F7F4FC70138
:1018B0000E94C40A882341F047E050E0BE016F5FF8
:1018C0007F4FC7010E94F40AE981EF77FA81FB801C
:1018D0005D814E814F778F81282F30E094E03595E0
:1018E00027959A95E1F7922F990F990F291B220FAF
:1018F000280FD8012C93842F90E024E095958795AC
:101900002A95E1F7982F990F990F891B880F840F5B
:1019100011968C931197652F70E034E0759567955B
:101920003A95E1F7862F880F880F681B660F650FC1
:1019300012966C9312974F2D50E064E055954795A1
:101940006A95E1F7842F880F880F481B440F4F0DCD
:1019500013964C9313972F2F30E074E0359527950D
:101960007A95E1F7822F880F880F281B220F2F0FFF
:1019700014962C9314978E2F90E0F4E0959587950C
:10198000FA95E1F7982F990F990F891B880F8E0F01
:1019900015968C93C80127960FB6F894DEBF0FBE3C
:1019A000CDBFDF91CF911F910F91FF90EF900895E0
:1019B000FC0101900020E9F73197AF01481B590B5A
:1019C000BC0181E993E00C94BB01CF93DF93D0E09D
:1019D000C0E0009719F00E94D80CEC018BE991E06F
:1019E0000E94D80C8C0F9D1FDF91CF910895CF934B
:1019F000DF930E94A802EC018BE991E00E94D80CD1
:101A00008C0F9D1FDF91CF910895CF93DF93FC0141
:101A1000448155816081718181E993E00E94BB011D
:101A2000EC018BE991E00E94D80C8C0F9D1FDF9197
:101A3000CF910895CF93DF9361157105A1F1DC017A
:101A40008D919C91009789F1EC01EE81FF81DB0182
:101A50000D900020E9F71197A61BB70B30E020E0AE
:101A6000309749F0EF0109900020E9F79E012150DD
:101A700031092E1B3F0B2A173B0751F4DB01260FC0
:101A8000371F2A173B0789F05D9141915417C9F31D
:101A9000FC012581222339F0F8E02F029001112466
:101AA000820F931FCFCF90E080E0DF91CF91089518
:101AB0009F92AF92BF92CF92DF92EF92FF920F93DD
:101AC0001F93CF93DF93EC017B01D42E0E942D074F
:101AD0008C01892B09F052C0CE010E94DF068636A8
:101AE00009F455C194F5873229F08B35D1F1823252
:101AF00009F056C1E881F981828193819B838A83B1
:101B00008481958122813381821B930B9F838E83F5
:101B10001D821C82892B11F481E08087CE010E94F6
:101B200069078C01892B51F5AC80BD80B501888196
:101B300099810E94870AF7012481207825602483F7
:101B400091838083B382A28219C0843709F408C1CB
:101B50008B3709F453C08E3609F022C169EA71E06F
:101B600008C1F701848180788064848311821082A7
:101B700013821282D1100FC005E010E0C801DF917E
:101B8000CF911F910F91FF90EF90DF90CF90BF907A
:101B9000AF909F9008951E86CE010E942D0700975A
:101BA00009F02DC16DE5CE010E94F9068111E6CF45
:101BB000DA946F857889C7010E94520A009709F468
:101BC0006EC04D2DBC01CE010E94580D009709F04A
:101BD00016C1CE010E942D07009709F010C16DE5D6
:101BE000CE010E94F9068111C9CF6CE2CE010E949C
:101BF000F9068111DECF03E010E0C0CFF701848148
:101C00008078806284831182108213821282DD20A8
:101C100009F4B2CF1E86CE010E942D07009709F06D
:101C2000EEC06DE7CE010E94F9068111A7CFBB245B
:101C3000B394DA94E881F981828193819B838A83CA
:101C40008481958122813381821B930B9F838E83B4
:101C50001D821C82892B09F4B086CE010E94DF060A
:101C6000873201F18232F1F0CE010E94DF06182F97
:101C70000E94CD06882309F4BECF1E86612FCE01B7
:101C80000E944F07CE010E94DF06182F0E94CD064A
:101C90008111F3CFE881F9818085882351F004E038
:101CA00010E06CCFCE010E9469078C01892B09F0EE
:101CB00065CFCE010E942D078C01892B09F05ECFE4
:101CC0006AE3CE010E94F906882309F494CFEA81E1
:101CD000FB818C819D81E80FF91F10820C811D8191
:101CE0006A817B81C7010E941A0DBC01892BA1F476
:101CF000B801888199810E94870A8C016F85788953
:101D0000C7010E94520AFC01892B49F28481806834
:101D1000848317830683BF014D2DCE010E94580D89
:101D20008C01892B09F02ACFCE010E942D078C014E
:101D3000892B09F023CF6DE7CE010E94F9068111AE
:101D40001DCF6CE2CE010E94F906882309F453CF1F
:101D5000CE010E942D078C01892B09F46BCF0ECF89
:101D6000F701848180788660848381E080836EE9D6
:101D700071E0CE01DF91CF911F910F91FF90EF9015
:101D8000DF90CF90BF90AF909F900C940A07F7011F
:101D90008481807886608483108263EA71E0E9CF71
:101DA000CE010E94DF065E01F1E1AF0EB11CD12C25
:101DB0009A2CCB2C803374F08A3374F49FE3D916B9
:101DC00099F01E86D394F50181935F01CE010E94A4
:101DD000DF06F0CF8B3291F393ED980F923070F3D2
:101DE000982F9F7D953451F3CD0DD11D198AB701E0
:101DF000892D9C2D0E944C088111C0CEFCCE8C01F7
:101E0000BDCEFC01248125FD0C941A0D90E080E0EC
:101E10000895CF93DF93EC0188819981009711F0A9
:101E20000E94B51D198218821D821C821B821A8293
:101E3000DF91CF910895FC0180819181009711F08D
:101E40000C94B51D089587EF92E00E941B0F81EF5F
:101E500092E00E941B0F8BEE92E00C941B0F0F93ED
:101E60001F93CF93DF93EC0188819981009759F0FC
:101E70002A813B812617370730F081E0DF91CF912F
:101E80001F910F9108958B016F5F7F4F0E943E1E3F
:101E9000009759F0998388831B830A832C813D81A5
:101EA000232B59F7FC011082E8CF80E0E7CFEF92B7
:101EB000FF920F931F93CF93DF936115710541F448
:101EC00080E0DF91CF911F910F91FF90EF900895E7
:101ED00041155105B1F07B01EC010C811D81040F0E
:101EE000151FB8010E942F0F882351F328813981D3
:101EF0008C819D81B701820F931F0E940D1F1D834E
:101F00000C8381E0DECFCF93DF93EC01FB010190E6
:101F10000020E9F73197AF01461B570B0E94570F7E
:101F2000811103C0CE010E94090FCE01DF91CF9134
:101F30000895CF93DF93EC01FB01448155816081CB
:101F400071810E94570F811103C0CE010E94090FB9
:101F5000CE01DF91CF910895EF92FF920F931F93DF
:101F6000CF93DF93EC017B018A01BA010E942F0F0E
:101F700081110BC0CE010E94090FCE01DF91CF91DC
:101F80001F910F91FF90EF9008951D830C83B7016F
:101F9000888199810E940D1FF0CFEF92FF920F93DD
:101FA0001F93CF93DF93CDB7DEB729970FB6F89481
:101FB000DEBF0FBECDBF8C01862FF80111821082CB
:101FC00013821282158214824AE09E012F5F3F4FD6
:101FD0007901B90190E00E943A1AF70101900020BE
:101FE000E9F73197AF014E195F09B701C8010E94A7
:101FF000AC0F29960FB6F894DEBF0FBECDBFDF91B0
:10200000CF911F910F91FF90EF900895FB01DC019C
:1020100011961C921E9213961C921E921297159660
:102020001C921E9214978617970749F06081718160
:102030006115710521F0448155810C94AC0F089510
:10204000EF92FF920F931F93CF93DF93CDB7DEB73D
:10205000AA970FB6F894DEBF0FBECDBF7C018B01EF
:102060000C5A1F4FB801CE014F960E94400C6CA134
:10207000CE0185960E94CD0FB801CE0143960E94F5
:10208000400C6F89CE0149960E94CD0FB801CE0158
:1020900001960E94400C6C81CE0107960E94CD0FE4
:1020A000BE01695F7F4FCE010D960E9406106EEA59
:1020B00071E0CE010D960E94830FBE01675E7F4FD7
:1020C0000E94990F6EEA71E00E94830FBE016B5D62
:1020D0007F4F0E94990FBC01C7010E940610CE01DC
:1020E0000D960E941B0FCE0107960E941B0FCE017A
:1020F00049960E941B0FCE0185960E941B0FC701B7
:10210000AA960FB6F894DEBF0FBECDBFDF91CF9178
:102110001F910F91FF90EF900895FC0111821082A2
:1021200013821282158214826115710551F0FB0130
:1021300001900020E9F73197AF01461B570B0C9433
:10214000AC0F08956AE971E08BEE92E00E948D1069
:102150006AE971E081EF92E00E948D106AE971E016
:1021600087EF92E00E948D101092080310920703EF
:102170001092FE021092FD021092130310921403AB
:10218000109215031092160380E098E090930403D8
:102190008093030388E090E090930A0380930903FF
:1021A0008AE090E090930C0380930B0389E090E029
:1021B00090930E0380930D038BE090E090931003B7
:1021C00080930F0388E00E941F0180910B030E94FF
:1021D0001F0180910D030E941F0180910F030E9437
:1021E0001F01109212031092110384E090E090936B
:1021F00006038093050380E098E0A0E0B0E08093C0
:10220000170390931803A0931903B0931A0384E55E
:10221000E6E0F1E0ABE1B3E001900D928A95E1F7E1
:102220001092700310926F03109276031092750350
:102230001092740310927103E8E4F1E081E08C30B5
:1022400049F09491823009F49F5F21E0280F319684
:10225000992351F18093720381E08093730310926C
:102260007703109278031092790310927A031092F8
:102270007B0310927C0310927D0310927E031092D8
:102280007F031092800310928103109282031092B8
:102290008303109284031092850310928603109298
:1022A0008703109288030895822FC9CF0F931F933D
:1022B000CF93DF93CDB7DEB7C657D1090FB6F894E9
:1022C000DEBF0FBECDBF6AE971E0CE018F589F4FD0
:1022D0000E948D1090918F0380919003981789F040
:1022E0008EE294E00E94600489831A8241E050E00B
:1022F000BE016F5F7F4FCE018F589F4F0E94570FD7
:10230000E9CF0091620210916302C8010E94191D79
:10231000080F191F009711F410E000E065969FAFB9
:102320008EAF659767969FAF8EAF679769961FAF21
:102330000EAF69976B961FAF0EAF6B97A1961FAE4E
:10234000A197E3964EAD5FADE397E7968EAD9FAD57
:10235000E797840F951F6C961FAE6C9722E530E0CF
:102360002C0F3D1F2F5F3F4FAB963FAF2EAFAB976C
:1023700068E0FE01E759FF4FDE01AF59BF4F019002
:102380000D926A95E1F768E0FE01EF59FF4FDE011B
:10239000119601900D926A95E1F719865B874A873D
:1023A0009D878C871F86398B288B62E570E06C0FC8
:1023B0007D1F665F7F4F4AE0CE0101960E94580D57
:1023C0008C01892B09F04BC08E85882339F0A196AA
:1023D0008FADA19703E010E083FD41C060EB71E099
:1023E00002E510E00C0F1D1F065F1F4FC8010E9481
:1023F000010F0E94230A80936F0262EB71E0C80113
:102400000E94010F0E94230A80936E0264EB71E028
:10241000C8010E94010F009719F490E080E002C00B
:102420000E94B30990936D0280936C0265968EAD05
:102430009FAD6597009711F00E94B51DCE018F5892
:102440009F4F0E941B0FCA58DF4F0FB6F894DEBF94
:102450000FBECDBFDF91CF911F910F91089588E9F5
:1024600090E00E94A802000F111FF801E65AFE4FEB
:10247000808191810E94E50CD9CF85ED8093BC00CD
:102480008091C5029091C602A091C702B091C80286
:102490000796A11DB11D23E0B695A7959795879541
:1024A0002A95D1F72091BC0024FD03C01092C302ED
:1024B00008954091C5025091C6026091C702709183
:1024C000C802452B462B472B69F30097A105B105A0
:1024D00041F02AE22A95F1F700C00197A109B1095C
:1024E000E1CF8091C4020C943F031F920F920FB66C
:1024F0000F9211242F933F938F939F93AF93BF938A
:102500008091750290917602A0917702B091780245
:102510003091740223E0230F2D3758F50196A11D49
:10252000B11D209374028093750290937602A0935C
:102530007702B09378028091790290917A02A0910B
:102540007B02B0917C020196A11DB11D809379029E
:1025500090937A02A0937B02B0937C02BF91AF91DB
:102560009F918F913F912F910F900FBE0F901F90D1
:10257000189526E8230F0296A11DB11DD2CF1F92F8
:102580000F920FB60F9211242F933F934F935F93A7
:102590006F937F938F939F93AF93BF93EF93FF932B
:1025A00081E993E00E943902FF91EF91BF91AF91D1
:1025B0009F918F917F916F915F914F913F912F915B
:1025C0000F900FBE0F901F9018951F920F920FB68D
:1025D0000F9211242F938F939F93EF93FF93E0918A
:1025E000A103F091A2038081E091A703F091A803D9
:1025F00082FD1BC090818091AA038F5F8F73209111
:10260000AB03821741F0E091AA03F0E0EF56FC4FD4
:10261000958F8093AA03FF91EF919F918F912F91B6
:102620000F900FBE0F901F9018958081F4CF1F92CE
:102630000F920FB60F9211242F933F934F935F93F6
:102640006F937F938F939F93AF93BF93EF93FF937A
:102650008091B900887F803609F44AC0F0F588324D
:1026600009F4A7C018F5803109F49BC0B8F4882399
:1026700009F4F9C0883009F494C0FF91EF91BF913B
:10268000AF919F918F917F916F915F914F913F910A
:102690002F910F900FBE0F901F901895883109F45D
:1026A00088C0803251F78093C10214C0803409F48D
:1026B0009DC040F48033B9F38833F9F68093C102AA
:1026C00085ECB0C0803509F485C0883509F496C022
:1026D000883499F60E943D12D0CF883909F48CC015
:1026E00038F5883729F050F4883611F0803729F60C
:1026F00083E08093C30210925F0257C0883809F4C8
:102700007BC0803919F0803809F0B7CF80915F0223
:10271000803208F071C0E0915F0281E08E0F8093FB
:102720005F028091BB00F0E0E15CFD4F80833DC023
:10273000803B39F0E0F4803A09F479C0883A09F036
:102740009CCF84E08093C30210923E0210923D021F
:10275000E0918B03F0918C03099580913D028111EA
:102760000FC081E080933D0210921D0209C0803CA1
:1027700009F4A6CF883C09F4A3CF883B09F07DCFAC
:10278000E0913E0281E08E0F80933E02F0E0E35E36
:10279000FD4F80818093BB0090913E0280913D026D
:1027A00029C080919E028093BB0085EC8093BC0081
:1027B00064CF9091C0028091BF02981758F5E091C4
:1027C000C00281E08E0F8093C002F0E0E156FD4F21
:1027D0008081E9CFE091C00281E08E0F8093C0023A
:1027E0008091BB00F0E0E156FD4F80839091C002E4
:1027F0008091BF029817C8F285E8D8CFE091C00257
:1028000081E08E0F8093C0028091BB00F0E0E15622
:10281000FD4F80838091C20281115CCF81E0809363
:102820009D0284EA8093BC001092C30226CF85ECFF
:102830008093BC001092C30280915F02803230F41A
:10284000E0915F02F0E0E15CFD4F108260915F0279
:1028500070E0E0918903F0918A038FE392E009959B
:1028600010925F020ACF1092C10234CFCF92DF9252
:10287000EF92FF920F931F93CF93DF93C0904C047E
:10288000D0904D04E0904E04F0904F04009150041D
:1028900010915104D0915204C09153049601A701A4
:1028A000B8018D2F9C2FAFEF0E94011D20934C0487
:1028B00030934D0440934E0450934F046093500462
:1028C000709351048093520490935304A0E00E94AB
:1028D0000D1D61F486E494E00E941B0F80E494E0F7
:1028E0000E941B0F8AE394E00E941B0F9601A70130
:1028F000B8018D2F9C2FAEEF0E94011D20934C0438
:1029000030934D0440934E0450934F046093500411
:10291000709351048093520490935304A0E00E945A
:102920000D1DA1F486E494E00E941B0F80E494E066
:102930000E941B0F8AE394E0DF91CF911F910F91CA
:10294000FF90EF90DF90CF900C941B0FDF91CF9111
:102950001F910F91FF90EF90DF90CF900895CF924D
:10296000DF92EF92FF920F931F93CF93DF9310921A
:1029700094031092930388EE93E0A0E0B0E080937C
:10298000950390939603A0939703B09398032AE638
:1029900031E0309392032093910325EC30E03093A3
:1029A0009E0320939D0324EC30E03093A0032093FA
:1029B0009F0320EC30E03093A2032093A10321EC8D
:1029C00030E03093A4032093A30322EC30E0309353
:1029D000A6032093A50326EC30E03093A8032093B0
:1029E000A7031092AA031092AB031092AC031092AB
:1029F000AD0310923104109230048093320490930E
:102A00003304A0933404B09335048CE791E09093A1
:102A10002F0480932E04C0904C04D0904D04E0907D
:102A20004E04F0904F040091500410915104D09145
:102A30005204C09153049601A701B8018D2F9C2F19
:102A4000A1E00E94011D20934C0430934D0440935B
:102A50004E0450934F04609350047093510480933C
:102A60005204909353040E940D1D91F46EEB71E09B
:102A70008AE394E00E948D1066EB71E080E494E0BC
:102A80000E948D106DEB71E086E494E00E948D1041
:102A90009601A701B8018D2F9C2FA2E00E94011D75
:102AA00020934C0430934D0440934E0450934F04B4
:102AB0006093500470935104809352049093530494
:102AC000A1E00E940D1DD1F46EEB71E08AE394E069
:102AD0000E948D1066EB71E080E494E00E948D10FE
:102AE0006DEB71E086E494E0DF91CF911F910F913F
:102AF000FF90EF90DF90CF900C948D10DF91CF91ED
:102B00001F910F91FF90EF90DF90CF900895CF939A
:102B1000DF93CDB7DEB7CB54D1090FB6F894DEBF43
:102B20000FBECDBF789484B5826084BD84B58160CA
:102B300084BD85B5826085BD85B5816085BD809188
:102B40006E00816080936E00109281008091810000
:102B500082608093810080918100816080938100F8
:102B6000809180008160809380008091B1008460BA
:102B70008093B1008091B00081608093B00080911B
:102B80007A00846080937A0080917A0082608093DA
:102B90007A0080917A00816080937A0080917A0037
:102BA000806880937A001092C10080916402811144
:102BB00005C00E94A21081E080936402E091A1030D
:102BC000F091A20382E08083E0919D03F0919E0347
:102BD0001082E0919F03F091A0038FEC808310920C
:102BE000A903E091A503F091A60386E08083E0911C
:102BF000A303F091A403808180618083E091A3030B
:102C0000F091A403808188608083E091A303F09118
:102C1000A403808180688083E091A303F091A403E2
:102C200080818F7D808388EC90E090936302809315
:102C300062020E94280380E18093BA0086E591E158
:102C4000909361028093600220910303309104030A
:102C5000032E000C440B550B60E077E883E993E00A
:102C60000E94DC1CCA01B9012AE030E040E050E0DB
:102C70000E94DC1C2093FF02309300034093010369
:102C80005093020308E66EE2262E64E0362E70E2D0
:102C9000A72EB12C9924939480916F039091700387
:102CA000009711F00E94B51D86E090E00E94191D6A
:102CB0007C01FC010083328221821382B582A482CE
:102CC0009093700380936F030E942803F70193820F
:102CD000C7010E94D904811129C089EE90E00E94A9
:102CE000F70C0E948A012B013C0154E6C52ED12C21
:102CF000E12CF12C0E948A01641975098609970953
:102D0000683E734081059105A8F3F1E0CF1AD10820
:102D1000E108F10828EE420E23E0521E611C711CEE
:102D2000C114D104E104F10429F7B6CF8FE693E092
:102D30000E94190C90E0880F892F881F990B892B0E
:102D400009F4BFC087EC90E00E94F70C4BE050E024
:102D50006BEB70E0CE0101967C010E94311ACE012E
:102D60000A960E94FE04082FE981E154E33118F528
:102D70000E2E000CFF0BE154F94E0C94FB1CFC18BA
:102D8000DB16DB161019DB161219DB16DB16DB1649
:102D9000D216DB16DB1603190E190C19DB16DB161F
:102DA000DB160A198A8111E0813629F08B8116E041
:102DB0008E3609F017E0CE0105960E94FE04D82E4B
:102DC00048E050E062EB70E0C7010E94311AC70191
:102DD0000E94FE04C82ECE0104960E94FE04B82E66
:102DE000CE0107960E94FE04382F88E0F701119269
:102DF0008A95E9F72AE0832F622F0E94861C982F7C
:102E0000880F890F880F830F8A838B2D0E94861C61
:102E1000982F880F890F880F8B0D8B838C2D0E9424
:102E2000861C982F880F890F880F8C0D8C834D2D51
:102E3000612F802F90E00E940B05069667E070E0FE
:102E40000E94921C811101C087E08D832AE08D2DA4
:102E5000622F0E94861C982F880F890F880F8D0D76
:102E60008E83812F0E94861C982F990F890F880FBF
:102E7000180F1F83802F0E94861C982F880F890FA0
:102E8000880F800F888721E048E050E0B7018091EB
:102E90006F03909170030E94C40A8FE693E00E9432
:102EA000190C9FE09AA38F778BA321E042E050E0BA
:102EB000BE016E5D7F4F80916F03909170030E9401
:102EC000C40A8E010F5F1F4F3AE0432E512C612C34
:102ED000712C27E0C22ED12C80916402811105C093
:102EE0000E94A21081E08093640280916F0280931F
:102EF000710280916E028093700280916C029091B9
:102F00006D0290937302809372020E94AF018090D1
:102F10007B0390907C03A0907D03B0907E036819A2
:102F200079098A099B09683E73408105910508F477
:102F30000AC10E94AF0160937B0370937C0380936E
:102F40007D0390937E038CE291E00E94A802809121
:102F50007102882309F468C184EC91E00E94E50CB9
:102F600082E291E00E94A80280917002882309F415
:102F70005EC183ED91E00E94E50C8BE991E00E9437
:102F8000D80C86E191E00E94A80280907202909095
:102F90007302092C000CAA08BB08B7FE4BC16DE2F6
:102FA00081E993E00E945B0222273327A9012819B7
:102FB00039094A095B0919A2CE0181967C01CA012F
:102FC000B901A30192010E94BA1C605DF7016293EE
:102FD0007F01211531054105510589F7E114F104FF
:102FE00019F0C7010E94D80C84E191E00E94F70C0F
:102FF0008BE991E00E94D80C6FE673E0C8010E9453
:10300000400C89814B816A8190E00E940B050696F5
:10301000B6010E94921C2CE0289FB001299F700DE0
:103020001124655E7C4FCE0182960E948D10CE01E8
:1030300082960E94050DCE0182960E941B0F8CE0A5
:1030400091E00E94A8026FE673E0CE0188960E948C
:10305000400C88A590E01BA21AA21DA21CA21FA2D0
:103060001EA24AE0B8018053984F0E943A1AF80114
:1030700001900020E9F73197AF01401B510BB801D7
:10308000CE0182960E94AC0F6FE673E0CE018E9661
:103090000E94400C68A9C8010E94CD0F6FE673E042
:1030A000CE01805C9F4F0E94400C22966FAD22970C
:1030B000CE01CA960E94CD0FBE01665C7F4FCE0145
:1030C000C4960E9406106EED71E0CE01C4960E9477
:1030D000830FB8010E94990F6EED71E00E94830F7B
:1030E000BE016E5D7F4F0E94990FBC01CE018A5BCD
:1030F0009F4F0E940610CE01C4960E941B0FCE0166
:10310000CA960E941B0FC8010E941B0FCE01829617
:103110000E941B0FCE018A5B9F4F0E94050DCE01BE
:103120008A5B9F4F0E941B0F84E091E00E94A802DF
:103130006BE173E0C8010E942010C8010E94050DD8
:10314000C8010E941B0F80917202909173021816A1
:1031500019060CF070C180907102882009F40AC130
:103160008AE3E82E84E0F82E9CE4A92E94E0B92EA0
:1031700033243394B701CE0182960E9406100E9438
:10318000AF012091770330917803409179035091FA
:103190007A03621B730B840B950B683E73408105A9
:1031A000910508F480C00E94AF016093770370938B
:1031B00078038093790390937A036BE173E0C801FD
:1031C0000E9420102D813E818EA19FA128173907D2
:1031D00009F057C089819A816AA17BA1009709F4FF
:1031E0003FC06115710509F037C1232B09F437C1C0
:1031F000FC01808190E041C08B8114E0823709F4AA
:10320000DACD18E0D8CD8B8113E0823709F4D3CD25
:1032100015E0D1CD19E0CFCD1AE0CDCD1BE0CBCD5F
:103220001CE0C9CD12E0C7CD8BEC91E097CE88EDC4
:1032300091E0A1CEA501940119A2CE0181967C0155
:10324000CA01B901A30192010E94BA1C605DF70195
:1032500062937F01211531054105510589F7BECEE5
:103260006115710509F4FBC0232B09F4F8C0FB01BB
:10327000808190E091958195910999249394892B6F
:1032800009F0912CC8010E941B0F992061F0309227
:1032900087030E94AF0160937F0370938003809344
:1032A000810390938203CE0182960E941B0FF6E069
:1032B000EF0EF11CAE14BF0409F05CCF80918703C0
:1032C000882309F457C0F12CE12C0E94AF018090B3
:1032D0007F0390908003A0908103B09082036819CF
:1032E00079098A099B09693B7B408105910530F486
:1032F00068E671E08DEF92E00E9426060E94AF0121
:1033000080907F0390908003A0908103B09082030F
:10331000681979098A099B09613777418105910507
:10332000C8F00E94AF0180907F0390908003A0902E
:103330008103B0908203681979098A099B0969326F
:1033400073428105910530F468E97EEF8DEF92E0DC
:103350000E94260681E023E0E216F10409F480E0F1
:10336000809387038FEFE81AF80A94E0E916F104D6
:1033700009F0ABCF8091710281115DC08091700224
:10338000882309F458C00E94AF01609383037093AF
:103390008403809385039093860381E08093880360
:1033A0000E94AF018090830390908403A0908503D6
:1033B000B0908603681979098A099B09693B7B40AB
:1033C0008105910530F468E671E08DEF92E00E948E
:1033D000260680918803882371F10E94AF018090B6
:1033E000830390908403A0908503B09086036819AE
:1033F00079098A099B096137774181059105D8F0E0
:103400000E94AF018090830390908403A090850375
:10341000B0908603681979098A099B096932734259
:103420008105910540F468E97EEF8DEF92E00E94FE
:1034300026061092880383EC90E00197F1F780E074
:1034400090E0892B09F448CD0E942502882309F4D5
:1034500040CD0E9400003DCD0E94041F0ECF982C4D
:1034600011CFFB01DC0102C005900D92415050408C
:10347000D8F70895BB27FB015527AA27880F991F66
:10348000AA1FA41710F0A41B83955051B9F7A05D93
:10349000AA3308F0A95DA193009779F7B111B19310
:1034A0001192CB010C94541ADC01FC01672F71912D
:1034B0007723E1F7329704C07C916D93708362911A
:1034C000AE17BF07C8F308950E94A61A08F481E05A
:1034D0000895E89409C097FB3EF490958095709507
:1034E00061957F4F8F4F9F4F9923A9F0F92F96E950
:1034F000BB279395F695879577956795B795F111C5
:10350000F8CFFAF4BB0F11F460FF1BC06F5F7F4F61
:103510008F4F9F4F16C0882311F096E911C0772373
:1035200021F09EE8872F762F05C0662371F096E87C
:10353000862F70E060E02AF09A95660F771F881F4B
:10354000DAF7880F9695879597F90895990F0008EF
:10355000550FAA0BE0E8FEEF16161706E807F90765
:10356000C0F012161306E407F50798F0621B730B00
:10357000840B950B39F40A2661F0232B242B252B81
:1035800021F408950A2609F4A140A6958FEF811D24
:10359000811D08950E94DD1A0C944E1B0E94401B51
:1035A00038F00E94471B20F0952311F00C94371B34
:1035B0000C943D1B11240C94821B0E945F1B70F322
:1035C000959FC1F3950F50E0551F629FF001729FC8
:1035D000BB27F00DB11D639FAA27F00DB11DAA1FD7
:1035E000649F6627B00DA11D661F829F2227B00D24
:1035F000A11D621F739FB00DA11D621F839FA00DAF
:10360000611D221F749F3327A00D611D231F849FFE
:10361000600D211D822F762F6A2F11249F57504055
:103620009AF0F1F088234AF0EE0FFF1FBB1F661FD0
:10363000771F881F91505040A9F79E3F510580F099
:103640000C94371B0C94821B5F3FE4F3983ED4F339
:10365000869577956795B795F795E7959F5FC1F73D
:10366000FE2B880F911D9695879597F9089597F9E8
:103670009F6780E870E060E008959FEF80EC089518
:1036800000240A9416161706180609060895002441
:103690000A9412161306140605060895092E0394BB
:1036A000000C11F4882352F0BB0F40F4BF2B11F42F
:1036B00060FF04C06F5F7F4F8F4F9F4F089557FD8E
:1036C0009058440F551F59F05F3F71F04795880F90
:1036D00097FB991F61F09F3F79F087950895121627
:1036E00013061406551FF2CF4695F1DF08C01616D3
:1036F00017061806991FF1CF869571056105089484
:103700000895E894BB2766277727CB0197F908959A
:103710000E94CA1BA59F900DB49F900DA49F800D81
:10372000911D112408952F923F924F925F926F92B4
:103730007F928F929F92AF92BF92CF92DF92EF9241
:10374000FF920F931F93CF93DF93CDB7DEB7CA1BC2
:10375000DB0B0FB6F894DEBF0FBECDBF09942A88ED
:10376000398848885F846E847D848C849B84AA8495
:10377000B984C884DF80EE80FD800C811B81AA8122
:10378000B981CE0FD11D0FB6F894DEBF0FBECDBFED
:10379000ED010895A29FB001B39FC001A39F700DDA
:1037A000811D1124911DB29F700D811D1124911D49
:1037B00008950E94ED1B0C944E1B0E94471B58F06D
:1037C0000E94401B40F029F45F3F29F00C94371B06
:1037D00051110C94821B0C943D1B0E945F1B68F3DB
:1037E0009923B1F3552391F3951B550BBB27AA27BA
:1037F00062177307840738F09F5F5F4F220F331FF4
:10380000441FAA1FA9F335D00E2E3AF0E0E832D0BB
:1038100091505040E695001CCAF72BD0FE2F29D0BE
:10382000660F771F881FBB1F261737074807AB0790
:10383000B0E809F0BB0B802DBF01FF2793585F4F05
:103840003AF09E3F510578F00C94371B0C94821B84
:103850005F3FE4F3983ED4F3869577956795B795E7
:10386000F7959F5FC9F7880F911D9695879597F9F2
:103870000895E1E0660F771F881FBB1F621773076B
:103880008407BA0720F0621B730B840BBA0BEE1F80
:1038900088F7E09508950E94521C6894B1110C9429
:1038A000821B08950E94671B88F09F5798F0B92FDC
:1038B0009927B751B0F0E1F0660F771F881F991F65
:1038C0001AF0BA95C9F714C0B13091F00E94811B6B
:1038D000B1E008950C94811B672F782F8827B85F7B
:1038E00039F0B93FCCF3869577956795B395D9F7BD
:1038F0003EF490958095709561957F4F8F4F9F4FC7
:1039000008950E94A61A08F48FEF0895991B79E094
:1039100004C0991F961708F0961B881F7A95C9F75F
:1039200080950895AA1BBB1B51E107C0AA1FBB1FAE
:10393000A617B70710F0A61BB70B881F991F5A953B
:10394000A9F780959095BC01CD01089597FB072EAE
:1039500016F4009407D077FD09D00E94921C07FC52
:1039600005D03EF4909581959F4F0895709561958F
:103970007F4F0895A1E21A2EAA1BBB1BFD010DC0AB
:10398000AA1FBB1FEE1FFF1FA217B307E407F5070F
:1039900020F0A21BB30BE40BF50B661F771F881FEB
:1039A000991F1A9469F760957095809590959B0181
:1039B000AC01BD01CF010895052E97FB1EF40094C4
:1039C0000E94F31C57FD07D00E94BA1C07FC03D0CD
:1039D0004EF40C94F31C50954095309521953F4F33
:1039E0004F4F5F4F089590958095709561957F4FEB
:1039F0008F4F9F4F0895EE0FFF1F0590F491E02D1C
:103A000009940024A7FD00942A0F301D401D501D6D
:103A1000601D701D801D901D08950024A7FD009459
:103A20002A17300540055005600570058005900592
:103A300008950F931F93CF93DF938230910510F475
:103A400082E090E0E0915604F091570430E020E0ED
:103A5000B0E0A0E0309799F42115310509F44AC08F
:103A6000281B390B24303105D8F58A819B816115DB
:103A7000710589F1FB0193838283FE0111C04081AE
:103A800051810281138148175907E0F048175907FF
:103A900099F4109761F012960C93129713961C9359
:103AA0003296CF01DF91CF911F910F91089500932E
:103AB000560410935704F4CF2115310551F04217E5
:103AC000530738F0A901DB019A01BD01DF01F801BC
:103AD000C1CFEF01F9CF9093570480935604CDCF17
:103AE000FE01E20FF31F8193919322503109398334
:103AF0002883D7CF2091540430915504232B41F4CF
:103B00002091020130910301309355042093540415
:103B100020910001309101012115310541F42DB7AB
:103B20003EB74091040150910501241B350BE091F3
:103B30005404F0915504E217F307A0F42E1B3F0B39
:103B40002817390778F0AC014E5F5F4F241735070F
:103B500048F04E0F5F1F50935504409354048193D7
:103B600091939FCFF0E0E0E09CCFCF93DF9300975D
:103B7000E9F0FC01329713821282A0915604B091B1
:103B80005704ED0130E020E01097A1F4208131814D
:103B9000820F931F20915404309155042817390740
:103BA00009F061C0F0935504E0935404DF91CF9184
:103BB0000895EA01CE17DF07E8F54A815B819E018F
:103BC00041155105B1F7E901FB83EA834991599108
:103BD000C40FD51FEC17FD0761F480819181029617
:103BE000840F951FE90199838883828193819B8348
:103BF0008A83F0E0E0E012968D919C9113970097F4
:103C0000B9F52D913C911197CD010296820F931F2A
:103C100020915404309155042817390739F630970C
:103C200051F51092570410925604B0935504A09386
:103C30005404BCCFD383C28340815181840F951F2C
:103C4000C817D90761F44E5F5F4F88819981480F8B
:103C5000591F518340838A819B81938382832115DD
:103C6000310509F0B0CFF0935704E09356049ECF8E
:103C7000FD01DC01C0CF13821282D7CFB0E0A0E0FB
:103C8000E4E4FEE10C94951B8C01009751F4CB0108
:103C90000E94191D8C01C801CDB7DEB7E0E10C947C
:103CA000B11BFC01E60FF71F9C0122503109E217FE
:103CB000F30708F49DC0D901CD91DC911197C61787
:103CC000D70798F0C530D10530F3CE010497861799
:103CD000970708F3C61BD70B2297C193D1936D9317
:103CE0007C93CF010E94B51DD6CF5B01AC1ABD0AF3
:103CF0004C018C0E9D1EA0915604B0915704512C7E
:103D0000412CF12CE12C109731F5809154049091C5
:103D100055048815990509F05CC04616570608F049
:103D200058C08091000190910101009741F48DB736
:103D30009EB74091040150910501841B950BE81733
:103D4000F90708F055C0F0935504E0935404F901C5
:103D500071836083A0CF8D919C91119712966C9086
:103D6000129713967C901397A815B90559F56C0115
:103D700042E0C40ED11CCA14DB0420F1AC014A1984
:103D80005B09DA011296159780F062827382518383
:103D90004083D9016D937C93E114F10471F0D70154
:103DA0001396FC93EE93129776CF22968C0F9D1F5D
:103DB000F90191838083F301EFCFF0935704E093EF
:103DC000560469CF4816590608F42C017D01D30129
:103DD0009ACFCB010E94191D7C01009749F0AE01DA
:103DE000B8010E94FB1EC8010E94B51D870153CF78
:103DF00010E000E050CFFB01DC0102C001900D9209
:103E000041505040D8F70895FB01DC018D9101909D
:103E100080190110D9F3990B0895FB01DC01019081
:103E20000D920020E1F7089510E0C9ECD0E004C045
:103E3000FE010E94FB1C2196CA3CD107C9F7F894E9
:023E4000FFCFB2
:103E420000005804800053756E6461790000000020
:103E520000004D6F6E64617900000000000054752F
:103E6200657364617900000000005765646E6573D4
:103E720064617900000054687572736461790000AE
:103E8200000046726964617900000000000053611D
:103E920074757264617900000000E001E301EE01D3
:103EA200FE010B021402000000005B02BB01E801EC
:103EB200C3021902F7010B0200000000A7047A04F2
:103EC200D60450047304600451042F2F22225C5C38
:103ED2006208660C6E0A720D7409000D0A00747293
:103EE20075650066616C7365006E756C6C003A00F6
:103EF20061006D00630031323A303A300031373AB6
:103F0200303A3000456E61626C65004469736162EB
:103F12006C65004F70656E00436C6F7365002F0017
:103F22004F6B00456D707479496E70757400496EFF
:103F3200636F6D706C657465496E70757400496E5F
:103F420076616C6964496E707574004E6F4D656D73
:0C3F52006F727900546F6F446565700059
:00000001FF
